{
  "contractName": "Dummy",
  "abi": [
    {
      "inputs": [],
      "stateMutability": "nonpayable",
      "type": "constructor"
    },
    {
      "anonymous": false,
      "inputs": [
        {
          "indexed": true,
          "internalType": "address",
          "name": "_owner",
          "type": "address"
        },
        {
          "indexed": true,
          "internalType": "address",
          "name": "_spender",
          "type": "address"
        },
        {
          "indexed": false,
          "internalType": "uint256",
          "name": "_value",
          "type": "uint256"
        }
      ],
      "name": "Approve",
      "type": "event"
    },
    {
      "anonymous": false,
      "inputs": [
        {
          "indexed": true,
          "internalType": "address",
          "name": "_from",
          "type": "address"
        },
        {
          "indexed": true,
          "internalType": "address",
          "name": "_to",
          "type": "address"
        },
        {
          "indexed": false,
          "internalType": "uint256",
          "name": "_value",
          "type": "uint256"
        }
      ],
      "name": "Transfer",
      "type": "event"
    },
    {
      "inputs": [
        {
          "internalType": "address",
          "name": "",
          "type": "address"
        },
        {
          "internalType": "address",
          "name": "",
          "type": "address"
        }
      ],
      "name": "allowance",
      "outputs": [
        {
          "internalType": "uint256",
          "name": "",
          "type": "uint256"
        }
      ],
      "stateMutability": "view",
      "type": "function"
    },
    {
      "inputs": [
        {
          "internalType": "address",
          "name": "",
          "type": "address"
        }
      ],
      "name": "balance",
      "outputs": [
        {
          "internalType": "uint256",
          "name": "",
          "type": "uint256"
        }
      ],
      "stateMutability": "view",
      "type": "function"
    },
    {
      "inputs": [],
      "name": "decimal",
      "outputs": [
        {
          "internalType": "uint256",
          "name": "",
          "type": "uint256"
        }
      ],
      "stateMutability": "view",
      "type": "function"
    },
    {
      "inputs": [],
      "name": "name",
      "outputs": [
        {
          "internalType": "string",
          "name": "",
          "type": "string"
        }
      ],
      "stateMutability": "view",
      "type": "function"
    },
    {
      "inputs": [],
      "name": "symbol",
      "outputs": [
        {
          "internalType": "string",
          "name": "",
          "type": "string"
        }
      ],
      "stateMutability": "view",
      "type": "function"
    },
    {
      "inputs": [],
      "name": "totalsupply",
      "outputs": [
        {
          "internalType": "uint256",
          "name": "",
          "type": "uint256"
        }
      ],
      "stateMutability": "view",
      "type": "function"
    },
    {
      "inputs": [
        {
          "internalType": "address",
          "name": "_to",
          "type": "address"
        },
        {
          "internalType": "uint256",
          "name": "_value",
          "type": "uint256"
        }
      ],
      "name": "transfer",
      "outputs": [
        {
          "internalType": "bool",
          "name": "",
          "type": "bool"
        }
      ],
      "stateMutability": "nonpayable",
      "type": "function"
    },
    {
      "inputs": [
        {
          "internalType": "address",
          "name": "_from",
          "type": "address"
        },
        {
          "internalType": "address",
          "name": "_to",
          "type": "address"
        },
        {
          "internalType": "uint256",
          "name": "_value",
          "type": "uint256"
        }
      ],
      "name": "transferfrom",
      "outputs": [
        {
          "internalType": "bool",
          "name": "",
          "type": "bool"
        }
      ],
      "stateMutability": "nonpayable",
      "type": "function"
    }
  ],
  "bytecode": "0x60806040526040518060400160405280600b81526020017f64756d6d7920746f6b656e0000000000000000000000000000000000000000008152506000908051906020019061004f929190610107565b506040518060400160405280600881526020017f44756d546f6b656e0000000000000000000000000000000000000000000000008152506001908051906020019061009b929190610107565b5069d3c21bcecceda100000060025560126003553480156100bb57600080fd5b50600254600460003373ffffffffffffffffffffffffffffffffffffffff1673ffffffffffffffffffffffffffffffffffffffff1681526020019081526020016000208190555061020b565b828054610113906101d9565b90600052602060002090601f016020900481019282610135576000855561017c565b82601f1061014e57805160ff191683800117855561017c565b8280016001018555821561017c579182015b8281111561017b578251825591602001919060010190610160565b5b509050610189919061018d565b5090565b5b808211156101a657600081600090555060010161018e565b5090565b7f4e487b7100000000000000000000000000000000000000000000000000000000600052602260045260246000fd5b600060028204905060018216806101f157607f821691505b60208210811415610205576102046101aa565b5b50919050565b610a018061021a6000396000f3fe608060405234801561001057600080fd5b50600436106100885760003560e01c806395d89b411161005b57806395d89b4114610117578063a9059cbb14610135578063dd62ed3e14610165578063e3d670d71461019557610088565b806306fdde031461008d57806363b0545f146100ab57806372dd529b146100db57806376809ce3146100f9575b600080fd5b6100956101c5565b6040516100a29190610696565b60405180910390f35b6100c560048036038101906100c09190610751565b610253565b6040516100d291906107bf565b60405180910390f35b6100e36103bd565b6040516100f091906107e9565b60405180910390f35b6101016103c3565b60405161010e91906107e9565b60405180910390f35b61011f6103c9565b60405161012c9190610696565b60405180910390f35b61014f600480360381019061014a9190610804565b610457565b60405161015c91906107bf565b60405180910390f35b61017f600480360381019061017a9190610844565b6105c0565b60405161018c91906107e9565b60405180910390f35b6101af60048036038101906101aa9190610884565b6105e5565b6040516101bc91906107e9565b60405180910390f35b600080546101d2906108e0565b80601f01602080910402602001604051908101604052809291908181526020018280546101fe906108e0565b801561024b5780601f106102205761010080835404028352916020019161024b565b820191906000526020600020905b81548152906001019060200180831161022e57829003601f168201915b505050505081565b600081600460008673ffffffffffffffffffffffffffffffffffffffff1673ffffffffffffffffffffffffffffffffffffffff1681526020019081526020016000205411156102a157600080fd5b81600460008673ffffffffffffffffffffffffffffffffffffffff1673ffffffffffffffffffffffffffffffffffffffff16815260200190815260200160002060008282546102f09190610941565b9250508190555081600460008573ffffffffffffffffffffffffffffffffffffffff1673ffffffffffffffffffffffffffffffffffffffff16815260200190815260200160002060008282546103469190610975565b925050819055508273ffffffffffffffffffffffffffffffffffffffff168473ffffffffffffffffffffffffffffffffffffffff167fddf252ad1be2c89b69c2b068fc378daa952ba7f163c4a11628f55a4df523b3ef846040516103aa91906107e9565b60405180910390a3600190509392505050565b60025481565b60035481565b600180546103d6906108e0565b80601f0160208091040260200160405190810160405280929190818152602001828054610402906108e0565b801561044f5780601f106104245761010080835404028352916020019161044f565b820191906000526020600020905b81548152906001019060200180831161043257829003601f168201915b505050505081565b600081600460003373ffffffffffffffffffffffffffffffffffffffff1673ffffffffffffffffffffffffffffffffffffffff1681526020019081526020016000205411156104a557600080fd5b81600460003373ffffffffffffffffffffffffffffffffffffffff1673ffffffffffffffffffffffffffffffffffffffff16815260200190815260200160002060008282546104f49190610941565b9250508190555081600460008573ffffffffffffffffffffffffffffffffffffffff1673ffffffffffffffffffffffffffffffffffffffff168152602001908152602001600020600082825461054a9190610975565b925050819055508273ffffffffffffffffffffffffffffffffffffffff163373ffffffffffffffffffffffffffffffffffffffff167fddf252ad1be2c89b69c2b068fc378daa952ba7f163c4a11628f55a4df523b3ef846040516105ae91906107e9565b60405180910390a36001905092915050565b6005602052816000526040600020602052806000526040600020600091509150505481565b60046020528060005260406000206000915090505481565b600081519050919050565b600082825260208201905092915050565b60005b8381101561063757808201518184015260208101905061061c565b83811115610646576000848401525b50505050565b6000601f19601f8301169050919050565b6000610668826105fd565b6106728185610608565b9350610682818560208601610619565b61068b8161064c565b840191505092915050565b600060208201905081810360008301526106b0818461065d565b905092915050565b600080fd5b600073ffffffffffffffffffffffffffffffffffffffff82169050919050565b60006106e8826106bd565b9050919050565b6106f8816106dd565b811461070357600080fd5b50565b600081359050610715816106ef565b92915050565b6000819050919050565b61072e8161071b565b811461073957600080fd5b50565b60008135905061074b81610725565b92915050565b60008060006060848603121561076a576107696106b8565b5b600061077886828701610706565b935050602061078986828701610706565b925050604061079a8682870161073c565b9150509250925092565b60008115159050919050565b6107b9816107a4565b82525050565b60006020820190506107d460008301846107b0565b92915050565b6107e38161071b565b82525050565b60006020820190506107fe60008301846107da565b92915050565b6000806040838503121561081b5761081a6106b8565b5b600061082985828601610706565b925050602061083a8582860161073c565b9150509250929050565b6000806040838503121561085b5761085a6106b8565b5b600061086985828601610706565b925050602061087a85828601610706565b9150509250929050565b60006020828403121561089a576108996106b8565b5b60006108a884828501610706565b91505092915050565b7f4e487b7100000000000000000000000000000000000000000000000000000000600052602260045260246000fd5b600060028204905060018216806108f857607f821691505b6020821081141561090c5761090b6108b1565b5b50919050565b7f4e487b7100000000000000000000000000000000000000000000000000000000600052601160045260246000fd5b600061094c8261071b565b91506109578361071b565b92508282101561096a57610969610912565b5b828203905092915050565b60006109808261071b565b915061098b8361071b565b9250827fffffffffffffffffffffffffffffffffffffffffffffffffffffffffffffffff038211156109c0576109bf610912565b5b82820190509291505056fea26469706673582212200cd32a7babcabb17fb3b52535485d3babf559275be773f606d1908cb9fe428a064736f6c634300080a0033",
  "immutableReferences": {},
  "source": "// SPDX-License-Identifier: MIT\r\npragma solidity >=0.4.17 <0.9.0;\r\n\r\ncontract Dummy{\r\n    \r\n    string public name = \"dummy token\";\r\n    string public symbol = \"DumToken\";\r\n    uint public totalsupply = 1000000000000000000000000;\r\n    uint public decimal = 18;\r\n\r\n    event Transfer(\r\n        address indexed _from,\r\n        address indexed _to,\r\n        uint _value\r\n    );\r\n\r\n    event Approve(\r\n        address indexed _owner,\r\n        address indexed _spender,\r\n        uint _value\r\n    );\r\n\r\n    mapping(address => uint256) public balance;\r\n    mapping(address => mapping(address => uint256)) public allowance;\r\n\r\n    constructor() {\r\n        balance[msg.sender] = totalsupply;\r\n    }\r\n\r\n    function transfer(address _to, uint256 _value) public returns(bool){\r\n        require(balance[msg.sender] <= _value);\r\n        balance[msg.sender] -= _value;\r\n        balance[_to] += _value;\r\n        emit Transfer(msg.sender, _to, _value);\r\n        return true;\r\n    }\r\n\r\n    function transferfrom(address _from, address _to, uint256 _value) public returns(bool){\r\n        require(balance[_from] <= _value);\r\n        balance[_from] -= _value;\r\n        balance[_to] += _value;\r\n        emit Transfer(_from, _to, _value);\r\n        return true;\r\n    }\r\n\r\n}",
  "sourcePath": "C:\\Users\\dmara\\staking_app_\\src\\contracts\\Dummy_Token.sol",
  "compiler": {
    "name": "solc",
    "version": "0.8.10+commit.fc410830.Emscripten.clang"
  },
  "schemaVersion": "3.4.3",
  "updatedAt": "2022-05-15T03:26:58.252Z",
  "devdoc": {
    "kind": "dev",
    "methods": {},
    "version": 1
  },
  "userdoc": {
    "kind": "user",
    "methods": {},
    "version": 1
  }
}