{
  "contractName": "Staking_Dapp",
  "abi": [
    {
      "inputs": [
        {
          "internalType": "contract Dummy_Token",
          "name": "_dummyToken",
          "type": "address"
        },
        {
          "internalType": "contract Tether_Token",
          "name": "_tetherToken",
          "type": "address"
        }
      ],
      "stateMutability": "nonpayable",
      "type": "constructor"
    },
    {
      "inputs": [],
      "name": "dummy_token",
      "outputs": [
        {
          "internalType": "contract Dummy_Token",
          "name": "",
          "type": "address"
        }
      ],
      "stateMutability": "view",
      "type": "function",
      "constant": true
    },
    {
      "inputs": [
        {
          "internalType": "address",
          "name": "",
          "type": "address"
        }
      ],
      "name": "hasstaked",
      "outputs": [
        {
          "internalType": "bool",
          "name": "",
          "type": "bool"
        }
      ],
      "stateMutability": "view",
      "type": "function",
      "constant": true
    },
    {
      "inputs": [
        {
          "internalType": "address",
          "name": "",
          "type": "address"
        }
      ],
      "name": "isstaking",
      "outputs": [
        {
          "internalType": "bool",
          "name": "",
          "type": "bool"
        }
      ],
      "stateMutability": "view",
      "type": "function",
      "constant": true
    },
    {
      "inputs": [],
      "name": "name",
      "outputs": [
        {
          "internalType": "string",
          "name": "",
          "type": "string"
        }
      ],
      "stateMutability": "view",
      "type": "function",
      "constant": true
    },
    {
      "inputs": [],
      "name": "owner",
      "outputs": [
        {
          "internalType": "address",
          "name": "",
          "type": "address"
        }
      ],
      "stateMutability": "view",
      "type": "function",
      "constant": true
    },
    {
      "inputs": [
        {
          "internalType": "uint256",
          "name": "",
          "type": "uint256"
        }
      ],
      "name": "stakers",
      "outputs": [
        {
          "internalType": "address",
          "name": "",
          "type": "address"
        }
      ],
      "stateMutability": "view",
      "type": "function",
      "constant": true
    },
    {
      "inputs": [
        {
          "internalType": "address",
          "name": "",
          "type": "address"
        }
      ],
      "name": "stakingBalance",
      "outputs": [
        {
          "internalType": "uint256",
          "name": "",
          "type": "uint256"
        }
      ],
      "stateMutability": "view",
      "type": "function",
      "constant": true
    },
    {
      "inputs": [],
      "name": "tether_token",
      "outputs": [
        {
          "internalType": "contract Tether_Token",
          "name": "",
          "type": "address"
        }
      ],
      "stateMutability": "view",
      "type": "function",
      "constant": true
    },
    {
      "inputs": [
        {
          "internalType": "uint256",
          "name": "_amount",
          "type": "uint256"
        }
      ],
      "name": "stakeTokens",
      "outputs": [],
      "stateMutability": "nonpayable",
      "type": "function"
    },
    {
      "inputs": [],
      "name": "unstakeTokens",
      "outputs": [],
      "stateMutability": "nonpayable",
      "type": "function"
    },
    {
      "inputs": [],
      "name": "issuedummy",
      "outputs": [],
      "stateMutability": "nonpayable",
      "type": "function"
    }
  ],
  "bytecode": "0x60806040526040518060400160405280600c81526020017f5374616b696e6720446170700000000000000000000000000000000000000000815250600090805190602001906200005192919062000150565b503480156200005f57600080fd5b5060405162001427380380620014278339818101604052810190620000859190620002c3565b81600260006101000a81548173ffffffffffffffffffffffffffffffffffffffff021916908373ffffffffffffffffffffffffffffffffffffffff16021790555080600360006101000a81548173ffffffffffffffffffffffffffffffffffffffff021916908373ffffffffffffffffffffffffffffffffffffffff16021790555033600160006101000a81548173ffffffffffffffffffffffffffffffffffffffff021916908373ffffffffffffffffffffffffffffffffffffffff16021790555050506200036f565b8280546200015e9062000339565b90600052602060002090601f016020900481019282620001825760008555620001ce565b82601f106200019d57805160ff1916838001178555620001ce565b82800160010185558215620001ce579182015b82811115620001cd578251825591602001919060010190620001b0565b5b509050620001dd9190620001e1565b5090565b5b80821115620001fc576000816000905550600101620001e2565b5090565b600080fd5b600073ffffffffffffffffffffffffffffffffffffffff82169050919050565b6000620002328262000205565b9050919050565b6000620002468262000225565b9050919050565b620002588162000239565b81146200026457600080fd5b50565b60008151905062000278816200024d565b92915050565b60006200028b8262000225565b9050919050565b6200029d816200027e565b8114620002a957600080fd5b50565b600081519050620002bd8162000292565b92915050565b60008060408385031215620002dd57620002dc62000200565b5b6000620002ed8582860162000267565b92505060206200030085828601620002ac565b9150509250929050565b7f4e487b7100000000000000000000000000000000000000000000000000000000600052602260045260246000fd5b600060028204905060018216806200035257607f821691505b602082108114156200036957620003686200030a565b5b50919050565b6110a8806200037f6000396000f3fe608060405234801561001057600080fd5b50600436106100a95760003560e01c80638da5cb5b116100715780638da5cb5b1461014057806390332cd71461015e578063a5ce413b1461018e578063af3fb4b114610198578063f9075fc6146101c8578063fd5e6dd1146101e6576100a9565b806306fdde03146100ae5780633d9f37cc146100cc57806345bc78ab146100d65780637547c7a31461010657806389c95e9814610122575b600080fd5b6100b6610216565b6040516100c39190610a9c565b60405180910390f35b6100d46102a4565b005b6100f060048036038101906100eb9190610b21565b61048e565b6040516100fd9190610b67565b60405180910390f35b610120600480360381019061011b9190610bae565b6104a6565b005b61012a61074a565b6040516101379190610c3a565b60405180910390f35b610148610770565b6040516101559190610c64565b60405180910390f35b61017860048036038101906101739190610b21565b610796565b6040516101859190610c9a565b60405180910390f35b6101966107b6565b005b6101b260048036038101906101ad9190610b21565b61097e565b6040516101bf9190610c9a565b60405180910390f35b6101d061099e565b6040516101dd9190610cd6565b60405180910390f35b61020060048036038101906101fb9190610bae565b6109c4565b60405161020d9190610c64565b60405180910390f35b6000805461022390610d20565b80601f016020809104026020016040519081016040528092919081815260200182805461024f90610d20565b801561029c5780601f106102715761010080835404028352916020019161029c565b820191906000526020600020905b81548152906001019060200180831161027f57829003601f168201915b505050505081565b600160009054906101000a900473ffffffffffffffffffffffffffffffffffffffff1673ffffffffffffffffffffffffffffffffffffffff163373ffffffffffffffffffffffffffffffffffffffff1614610334576040517f08c379a000000000000000000000000000000000000000000000000000000000815260040161032b90610dc4565b60405180910390fd5b60005b60048054905081101561048b5760006004828154811061035a57610359610de4565b5b9060005260206000200160009054906101000a900473ffffffffffffffffffffffffffffffffffffffff1690506000600560008373ffffffffffffffffffffffffffffffffffffffff1673ffffffffffffffffffffffffffffffffffffffff168152602001908152602001600020549050600081111561047657600260009054906101000a900473ffffffffffffffffffffffffffffffffffffffff1673ffffffffffffffffffffffffffffffffffffffff1663a9059cbb83836040518363ffffffff1660e01b8152600401610431929190610e13565b6020604051808303816000875af1158015610450573d6000803e3d6000fd5b505050506040513d601f19601f820116820180604052508101906104749190610e68565b505b5050808061048390610ec4565b915050610337565b50565b60056020528060005260406000206000915090505481565b600081116104e9576040517f08c379a00000000000000000000000000000000000000000000000000000000081526004016104e090610f59565b60405180910390fd5b600360009054906101000a900473ffffffffffffffffffffffffffffffffffffffff1673ffffffffffffffffffffffffffffffffffffffff166363b0545f3330846040518463ffffffff1660e01b815260040161054893929190610f79565b6020604051808303816000875af1158015610567573d6000803e3d6000fd5b505050506040513d601f19601f8201168201806040525081019061058b9190610e68565b5080600560003373ffffffffffffffffffffffffffffffffffffffff1673ffffffffffffffffffffffffffffffffffffffff16815260200190815260200160002060008282546105db9190610fb0565b92505081905550600660003373ffffffffffffffffffffffffffffffffffffffff1673ffffffffffffffffffffffffffffffffffffffff16815260200190815260200160002060009054906101000a900460ff16610697576004339080600181540180825580915050600190039060005260206000200160009091909190916101000a81548173ffffffffffffffffffffffffffffffffffffffff021916908373ffffffffffffffffffffffffffffffffffffffff1602179055505b6001600760003373ffffffffffffffffffffffffffffffffffffffff1673ffffffffffffffffffffffffffffffffffffffff16815260200190815260200160002060006101000a81548160ff0219169083151502179055506001600660003373ffffffffffffffffffffffffffffffffffffffff1673ffffffffffffffffffffffffffffffffffffffff16815260200190815260200160002060006101000a81548160ff02191690831515021790555050565b600360009054906101000a900473ffffffffffffffffffffffffffffffffffffffff1681565b600160009054906101000a900473ffffffffffffffffffffffffffffffffffffffff1681565b60066020528060005260406000206000915054906101000a900460ff1681565b6000600560003373ffffffffffffffffffffffffffffffffffffffff1673ffffffffffffffffffffffffffffffffffffffff1681526020019081526020016000205490506000811161083d576040517f08c379a000000000000000000000000000000000000000000000000000000000815260040161083490611052565b60405180910390fd5b600360009054906101000a900473ffffffffffffffffffffffffffffffffffffffff1673ffffffffffffffffffffffffffffffffffffffff1663a9059cbb33836040518363ffffffff1660e01b815260040161089a929190610e13565b6020604051808303816000875af11580156108b9573d6000803e3d6000fd5b505050506040513d601f19601f820116820180604052508101906108dd9190610e68565b506000600560003373ffffffffffffffffffffffffffffffffffffffff1673ffffffffffffffffffffffffffffffffffffffff168152602001908152602001600020819055506000600760003373ffffffffffffffffffffffffffffffffffffffff1673ffffffffffffffffffffffffffffffffffffffff16815260200190815260200160002060006101000a81548160ff02191690831515021790555050565b60076020528060005260406000206000915054906101000a900460ff1681565b600260009054906101000a900473ffffffffffffffffffffffffffffffffffffffff1681565b600481815481106109d457600080fd5b906000526020600020016000915054906101000a900473ffffffffffffffffffffffffffffffffffffffff1681565b600081519050919050565b600082825260208201905092915050565b60005b83811015610a3d578082015181840152602081019050610a22565b83811115610a4c576000848401525b50505050565b6000601f19601f8301169050919050565b6000610a6e82610a03565b610a788185610a0e565b9350610a88818560208601610a1f565b610a9181610a52565b840191505092915050565b60006020820190508181036000830152610ab68184610a63565b905092915050565b600080fd5b600073ffffffffffffffffffffffffffffffffffffffff82169050919050565b6000610aee82610ac3565b9050919050565b610afe81610ae3565b8114610b0957600080fd5b50565b600081359050610b1b81610af5565b92915050565b600060208284031215610b3757610b36610abe565b5b6000610b4584828501610b0c565b91505092915050565b6000819050919050565b610b6181610b4e565b82525050565b6000602082019050610b7c6000830184610b58565b92915050565b610b8b81610b4e565b8114610b9657600080fd5b50565b600081359050610ba881610b82565b92915050565b600060208284031215610bc457610bc3610abe565b5b6000610bd284828501610b99565b91505092915050565b6000819050919050565b6000610c00610bfb610bf684610ac3565b610bdb565b610ac3565b9050919050565b6000610c1282610be5565b9050919050565b6000610c2482610c07565b9050919050565b610c3481610c19565b82525050565b6000602082019050610c4f6000830184610c2b565b92915050565b610c5e81610ae3565b82525050565b6000602082019050610c796000830184610c55565b92915050565b60008115159050919050565b610c9481610c7f565b82525050565b6000602082019050610caf6000830184610c8b565b92915050565b6000610cc082610c07565b9050919050565b610cd081610cb5565b82525050565b6000602082019050610ceb6000830184610cc7565b92915050565b7f4e487b7100000000000000000000000000000000000000000000000000000000600052602260045260246000fd5b60006002820490506001821680610d3857607f821691505b60208210811415610d4c57610d4b610cf1565b5b50919050565b7f63616c6c6572206d75737420626520746865206f776e657220666f722074686960008201527f732066756e6374696f6e00000000000000000000000000000000000000000000602082015250565b6000610dae602a83610a0e565b9150610db982610d52565b604082019050919050565b60006020820190508181036000830152610ddd81610da1565b9050919050565b7f4e487b7100000000000000000000000000000000000000000000000000000000600052603260045260246000fd5b6000604082019050610e286000830185610c55565b610e356020830184610b58565b9392505050565b610e4581610c7f565b8114610e5057600080fd5b50565b600081519050610e6281610e3c565b92915050565b600060208284031215610e7e57610e7d610abe565b5b6000610e8c84828501610e53565b91505092915050565b7f4e487b7100000000000000000000000000000000000000000000000000000000600052601160045260246000fd5b6000610ecf82610b4e565b91507fffffffffffffffffffffffffffffffffffffffffffffffffffffffffffffffff821415610f0257610f01610e95565b5b600182019050919050565b7f616d6f756e742063616e6e6f74206265207a65726f0000000000000000000000600082015250565b6000610f43601583610a0e565b9150610f4e82610f0d565b602082019050919050565b60006020820190508181036000830152610f7281610f36565b9050919050565b6000606082019050610f8e6000830186610c55565b610f9b6020830185610c55565b610fa86040830184610b58565b949350505050565b6000610fbb82610b4e565b9150610fc683610b4e565b9250827fffffffffffffffffffffffffffffffffffffffffffffffffffffffffffffffff03821115610ffb57610ffa610e95565b5b828201905092915050565b7f7374616b696e672062616c616e6365206973207a65726f000000000000000000600082015250565b600061103c601783610a0e565b915061104782611006565b602082019050919050565b6000602082019050818103600083015261106b8161102f565b905091905056fea2646970667358221220f0fb247106baae8e858d3cb68561b7276226f91ac3012e8374b8f25c3b4b12cb64736f6c634300080a0033",
  "immutableReferences": {},
  "source": "// SPDX-License-Identifier: MIT\r\npragma solidity >=0.4.17 <0.9.0;\r\n\r\nimport \"./Dummy_Token.sol\";\r\nimport \"./Tether_Token.sol\";\r\n\r\ncontract Staking_Dapp{\r\n\r\n    string public name = \"Staking Dapp\";\r\n    address public owner;\r\n    Dummy_Token public dummy_token;\r\n    Tether_Token public tether_token;\r\n\r\n    address[] public stakers;\r\n    mapping(address => uint) public stakingBalance;\r\n    mapping(address => bool) public hasstaked;\r\n    mapping(address => bool) public isstaking;\r\n\r\n    constructor(Dummy_Token _dummyToken, Tether_Token _tetherToken) {\r\n        dummy_token = _dummyToken;\r\n        tether_token = _tetherToken;\r\n        owner = msg.sender;\r\n    }\r\n\r\n    function stakeTokens(uint _amount) public{\r\n        require(_amount > 0, \"amount cannot be zero\");\r\n        tether_token.transferfrom(msg.sender, address(this), _amount);\r\n        stakingBalance[msg.sender] += _amount;\r\n        if(!hasstaked[msg.sender]){\r\n            stakers.push(msg.sender);\r\n        }\r\n        isstaking[msg.sender] = true;\r\n        hasstaked[msg.sender] = true;\r\n    }\r\n\r\n    function unstakeTokens() public{\r\n        uint balance = stakingBalance[msg.sender];\r\n        require(balance > 0, \"staking balance is zero\");\r\n        tether_token.transfer(msg.sender, balance);\r\n        stakingBalance[msg.sender] = 0;\r\n        isstaking[msg.sender] = false;\r\n    }\r\n\r\n    function issuedummy() public{\r\n        require(msg.sender == owner, \"caller must be the owner for this function\");\r\n        for(uint i = 0; i<stakers.length; i++){\r\n            address recipient = stakers[i];\r\n            uint balance = stakingBalance[recipient];\r\n            if(balance > 0){\r\n                dummy_token.transfer(recipient, balance);\r\n            }\r\n        }\r\n    }\r\n\r\n}",
  "sourcePath": "C:\\Users\\dmara\\staking_app_\\src\\contracts\\Staking_Dapp.sol",
  "compiler": {
    "name": "solc",
    "version": "0.8.10+commit.fc410830.Emscripten.clang"
  },
  "schemaVersion": "3.4.3",
  "updatedAt": "2022-05-16T03:41:00.108Z",
  "networkType": "ethereum",
  "devdoc": {
    "kind": "dev",
    "methods": {},
    "version": 1
  },
  "userdoc": {
    "kind": "user",
    "methods": {},
    "version": 1
  }
}